:0200000407FCF7
:10000000E056FC07BD01FC07C501FC07DD01FC074C
:1000100000000000000000000000000000000000E0
:10002000000000000000000000000000F501FC07D7
:100030000000000000000000F701FC07F901FC07C8
:10004000E11CFC071F1DFC07A526F007AD1AFC07E5
:100050009D18FC07FB01FC078117FC07FB01FC074F
:10006000FB01FC07FB01FC07D713FC07DB13FC07B4
:10007000DF13FC07E313FC07E713FC07FB01FC0796
:100080002114FC07FB01FC07FB01FC07FB01FC073B
:10009000FB01FC07FB01FC07FB01FC07FB01FC0764
:0800A000000000008E070E00B5
:0200000407FCF7
:100110000448854604F0AEF9004800475903FC073F
:10012000C046C046E056FC0710B51F480189C90803
:10013000C9000181018A1D4CC90713D0808800289D
:1001400010D11B481949428820310A8182888A804F
:10015000C2880A80618AFF22813200889143C001EF
:10016000014361821349062008800F2000F00EF839
:10017000012000F00BF8002000F008F8608904214D
:10018000884360810020208062B610BD002809DB12
:10019000C106C90E0120884007490860BFF34F8F90
:1001A000BFF36F8F70470000000300500000005045
:1001B000A000FC070034005080E100E00F488047B9
:1001C0000F48004704207146084203D0EFF309802E
:1001D0000C490847EFF308800A4908470420714694
:1001E000084203D0EFF3098007490847EFF308807E
:1001F00005490847FEE7FEE7FEE7FEE72901FC07A1
:100200001101FC079902FC070D02FC0710B504461A
:100210001E484089C00508D51B2000F09DFF1B48E3
:1002200060300188012211430180052212071088E5
:10023000518A0007800FFF2381339943C001014396
:10024000518213492068086060684860A06888602F
:10025000E068C8602069086160694861A0698861D8
:10026000E069C8610C620B48836A4B62C36A8B62A7
:10027000036BCB62C36B0B63436B4B63806B886315
:10028000908AC00601D500BE10BDFEE720000050D8
:100290000090FC0700ED00E070B5052504462D0731
:1002A000288A04210843288228894021084328817C
:1002B00024480126066024490820088023484089F4
:1002C000C00507D51B2000F047FF2048603001889B
:1002D000314301802888698A0007800FFF2281321C
:1002E0009143C0010143698219492068086160682F
:1002F0004861A0688861E068C86120690862606937
:100300004862A0698862E069C8620C631148826A29
:100310004A63C26A8A63026BCA63C26B0C4940318A
:100320000A60426B4A60806B8860A88AC00608D564
:1003300000BE688A012180088000C90308436882E2
:1003400070BDFEE780E200E0003300502000005066
:100350004090FC0700ED00E008B500F0BEF800F0AA
:1003600039FB01250026052424070CE0284600F06F
:10037000F3F90421684600964DF7E0FB002817D0FA
:1003800000F0ADFA14E02089000611D501208007A5
:10039000006B00040CD499480078C00708D15DF7C1
:1003A0002CF8002000F0D8F9954800780428DDD01A
:1003B00072B601F049FD042806D002280BD00328AC
:1003C00009D0012814D014E08E480078012801D00B
:1003D000032000E0022000F04AF8A08AC00602D5FF
:1003E00089490820088030BFA08A00F004F800E0A6
:1003F00030BF62B6C7E710B500F07EF98349022826
:100400000CD105200007408AC005820F8048028079
:100410000A8942808A8882800A88C280488960214D
:10042000C00500280ADB794860300088C00705D085
:10043000764A2032508A884320305082754882881C
:100440008A43203282807448C078002807D07348DD
:10045000006801898AB2416803205CF72FF902F035
:10046000AEFF6F48016904229143016110BD38B5A8
:100470006946052408702407218A05460422114391
:10048000218200F063F8614841896022C905002992
:1004900005DB5E4B2033598A9143403159825D49D7
:1004A0008B88934340338B80022D01D0032D13D1D1
:1004B0008188490849008180002000900099491CEA
:1004C00000911429FADB618989088900491C61813E
:1004D00061894906FCD5608038BDF0B55148524964
:1004E00005230127514A884201D31C4604E090426B
:1004F00001D33C4600E000244D4D4E4E4648AD1918
:100500004D4E8470AD190126B6034560B54201D841
:10051000142500E000252540484C45708C4213D23C
:10052000474B2546EB18944205D38B4201D2112349
:100530000AE03B4608E0934201D2142304E08B42D8
:1005400001D2102300E000230370F0BDF8B50228AB
:1005500001D0032848D1324A136904210B431361A7
:100560002C4A203A93895B085B0093810524102272
:10057000294E240702287578608A36D0104360829D
:10058000608A084360827068C01C870801F0F4F933
:10059000608A1021084360822A487F1E0762EFF3B9
:1005A0001080012181F310882188802291432180CD
:1005B000002800D0012080F3108814484089C0052D
:1005C0000AD501F0C7F90B2000F0C6FD0F486030D6
:1005D000018801221143018003205CF795F800286F
:1005E00006D00120F0702583F8BD90436082F3E7C8
:1005F0000020F07030780540F5E7000054BAFC07A1
:10060000008DFC07B4BAFC070033005020000050F6
:10061000A000FC0720030050C08BFC0758B9FC0762
:1006200000ED00E0C08BFC070070FC070040FC07F9
:100630001001FC07404F0000000004F8E056FC07E2
:100640000C0400000000F407704770B50D4600244C
:1006500042F755F92855641CE4B2202CF8D3002049
:1006600070BD10B55EF736FD10BD10B55EF73BFDF1
:1006700010BD7047704770470649884200D000BEE1
:1006800005210907488A012280088000D20310430F
:1006900048827047111111112B480178002902D0AE
:1006A0008021417070472949002008702849C8708E
:1006B000704725490A78002A03D000280CD0022070
:1006C0000BE0002801D0022000E001201F49087043
:1006D0001F490120C8707047012080304870704762
:1006E000002805D0012804D0022804D10120E0E729
:1006F000D2E70020FBE77047144900200978002961
:1007000004D0012903D0022900D102207047012022
:1007100070470D48C07870470020EFF31081012228
:1007200082F31088052212071289120605D409489F
:10073000028901231A4302811846002900D00121B1
:1007400081F3108870470000C88BFC07B4BAFC071F
:1007500054BAFC070033005010B5FE4CA1780029B4
:1007600021D0FD49002803D008884007FCD402E0CE
:100770000888400717D4CA88888811040A180020FE
:10078000A070F64800235043800B401C4008E061F5
:100790001F204006492162F763FEE162A0626421E6
:1007A0004843000CA06110BDEB4948800888032233
:1007B000104308800888042210430880E54901207E
:1007C0008870704770B50520000701893022914379
:1007D000018101898022114301810189082211438D
:1007E0000181DF490A88520852000A804389182291
:1007F00093434381048940231C430481048A0425D4
:10080000AC430482848AA407FCD5D24DAA246C612F
:10081000CD8801240F263602B5430B263602AD19CA
:10082000CD80CD882543CD804489944308344481CC
:100830004A88520852004A80018999430181012067
:1008400080070168821591430160C64801683F2214
:100850005202914342148918016001680203114356
:10086000016070BD10B5BB490122D203C969904235
:1008700005D303F011FE8905800A084310BD4843E3
:10088000800A10BDEEE710B5B24989694843B64900
:10089000401849005EF7B6FB10BDF4E770B500F0F4
:1008A000E4FB0446FFF7F9FFAA4D288120463C30BF
:1008B000FFF7F3FFAD49001D88602A891018C01D9D
:1008C000AB4A48601278022A01D111304860FFF724
:1008D000D9FFA849401880B25CF720FE70BDF0B582
:1008E000A54985B00120C863C86B0028FCD1012050
:1008F0008007C069974C2169884201D2002121619B
:100900001922411AD20191422AD320619B480188C1
:100910000391418802918788C688994903C900904C
:100920000191684600F06FFE00F045FF054601208A
:1009300020567F280CD0281A40B2002801DA404205
:1009400040B2082805DBE068401CE06001F039FC9B
:1009500065708A48029941808780C680039901802A
:1009600005B0F0BD0020704710B586490020086032
:10097000FFF794FF01208007016B490049080163DC
:1009800010BD08B57349888075498A88520852009D
:100990008A80002200920099491C00911429FADBF8
:1009A000052109074B899B089B005B1C4B814B89E8
:1009B0005B06FCD54880E120C0000092521C0092EA
:1009C0008242FBDB48898008800048814889000614
:1009D000FCD508BDF8B56C480826068000F002FC7E
:1009E0006A4CA188684601800088C046C0466846B7
:1009F0000088042398433ED00020A0806348203024
:100A000001880F22920211430180554A2032518AF7
:100A100031435182524960310C880625AC430C8029
:100A20000588CC0125430580558AA5435582948AC3
:100A30000E25AC43A41D9482494C6589EF05544DA5
:100A40000F881DD5AF4315017D190D800D880F024C
:100A50002D052D0DED190D80058835430580058880
:100A60009D4305800D886D086D000D80018840252F
:100A7000A943018020E0208A400840002082BDE791
:100A8000AF4303256D027D190D800D880F273F03AD
:100A90003D430D800588B543058005889D4305804D
:100AA000958A03267602B54395820D880126354343
:100AB0000D8061894907FCD5018803252943018000
:100AC000558A60218D432035558282888A432032A1
:100AD000828001201F4E052530702D07E88AC02135
:100AE00088438030E882208A000A00022082208B1E
:100AF0001C2188430830208326480380A8880121D0
:100B0000C9028843A88048012349086000F034FFE7
:100B1000022000F0F6FE214C2069C0B2AA286CD059
:100B2000012029880C229143800001432980C0467E
:100B3000C0460848203000F0C1FA00F01DF900F06E
:100B400091FA00285BD000F08DFAFFF71AFF7F20A2
:100B5000707025E0D08BFC070016005011110100C9
:100B6000200000500002004020A107005050FC0768
:100B7000B4BAFC07E2040000C000004000150050B9
:100B80006447FC07A8B9FC0700330050000300507D
:100B9000000F00000002005080E200E0C07FF80774
:100BA000A06A1B49086000F017FF00F037F802F058
:100BB00006FC012041F7A9FEFFF704FE1548006876
:100BC00041F748FB14490020C870087101208007D4
:100BD000016882151143016000F0F4FF1E20FFF749
:100BE000E3FD0120FFF7B8FDFFF756FD02F067F8BF
:100BF00002F022FDFFF7B8FEF8BD032091E720695F
:100C0000C0B2AA2801D06E209FE780209DE7000097
:100C10005050FC074CB9FC0754BAFC0770B5354876
:100C2000334D006834492C6892B0884205D00522C3
:100C30005202324932485EF75FFA324E324930464C
:100C40005EF773FA0721314809025EF76EFA2C60ED
:100C500003F0F8FB2F492E4808602F480024048039
:100C600030222E492E485EF747FA294908220839D2
:100C700003C91191109010A92A485EF73DFA244942
:100C80004022283168465EF737FA402269462648F6
:100C90005EF732FA2548274904702548086027493D
:100CA0002548086027492648086027490A20087017
:100CB000264827490470322008702649052008601C
:100CC000254A012111602549086025490620086050
:100CD000244907200860244908200860FF20234990
:100CE00007300860224908602248066012B070BDD3
:100CF0005CBAFC079CB8FC076587341200B0FC079F
:100D0000548EFC0700A0FC07AC14000000B9FC07DF
:100D10007447FC0760BAFC07008CFC077CFCF107F9
:100D200000BAFC07DAB9FC07B0BCFC07FDB9FC0748
:100D3000603FF20750B9FC07FC44FC0754B9FC07BC
:100D40007846FC0758B9FC07B0B9FC07B1B9FC07F5
:100D5000D9B9FC075CB9FC0760B9FC0764B9FC07AA
:100D600068B9FC076CB9FC0770B9FC0748B9FC0707
:100D700044B9FC074CB9FC07F0B5C44C89B000205D
:100D80002076607603900120C046C046C0480169C5
:100D9000C048814202D0C01709B0F0BDBC4F042545
:100DA000403FE819016D0191090F092910D0012276
:100DB0000198920790427AD3B74A904277D8B749C0
:100DC0000835884274D1E819C16CB5484180A6E065
:100DD000019A01991204C9B2160E112935D007DC07
:100DE0000B005EF7DDF9087474747474740D1F746D
:100DF00012390B005EF7D4F9063A4B5D6B60656BF8
:100E0000207EB200C100A14840380818A049143122
:100E100069185EF771F9207E8019C0B22076042827
:100E200054D854E0607EB200C10098484038081899
:100E300097491030143169185EF75EF9607E8019A9
:100E4000C0B260760C2841D841E0416D89B2029170
:100E5000406D000C01460490029800F009F9A08052
:100E60000499029800F00CF9E08030E0416D89B2FD
:100E70000491406D000C01460290049800F0F8F8CF
:100E800020810299049800F0FBF860811FE003982C
:100E900005A9800040187E49B200143169185EF738
:100EA0002BF903988019039002280FD80FE02BE04C
:100EB00010E0406D60820AE0416D74484038016482
:100EC00005E0406D0004000CA08200D100BEB0001F
:100ED00045194DE071492639884203D1E819C06CA3
:100EE000E0821CE06D49091F884204D1E819C06CFA
:100EF0006B49888013E06949083988420FD1E819A5
:100F0000C06C6749C8800AE007292ED008292FD075
:100F10000A292DD006292BD0401C07D000BE5C48E2
:100F2000103029185F48814200D23AE70598A08125
:100F30000698050C86B22946304600F099F8E08103
:100F40002946304600F09CF82082207EC10700D060
:100F500000BE40082076607EC10700D000BE400879
:100F60006076A18A002905D007E00020C046C0466F
:100F70002D1DD4E77D21C900A182042800D000BE28
:100F8000002009E7F8B5414C0025403C3F4F24E0E4
:100F9000EE00A059444988421AD1301900904068A7
:100FA000800A400414D001F0F1FB092810D9009800
:100FB000032240681202014609041040890E0843CA
:100FC000A1590860009839494068C001C00D02E08D
:100FD00030194068A15908606D1C387EA842D7DCE2
:100FE000F8BDF8B5294C0025403C2746403717E0AE
:100FF000E80006192E48316981420DD101F0C6FB87
:10100000092809D92B4970690840284909884904E9
:1010100008433169086002E03069716901606D1C44
:10102000787EA842E4DCF8BD18490420085E7047C9
:1010300016490620085E704714490820085E70476C
:1010400012490A20085E70471048808970470F498E
:101050000E20085E70470D491020085E70470B484F
:10106000408A70470948C08A70470848808A70479C
:10107000081A0104890C40180F49401800B2704743
:10108000C2008018401A0004C0147047448CFC074A
:10109000C07EF807A5A5A5A54C4200502800005029
:1010A000A000FC07C07FF8074C1000405C50FC0714
:1010B00038300040FFFF01FC0100FFFF10B50622A1
:1010C00001495EF719F810BDD47FF8070520000725
:1010D00001883022114301800188032211430180DD
:1010E0007047052000070188302291430180018864
:1010F000890889000180704736490A8B03231B0247
:101100009A43000202430A83704733498A8A0323C1
:101110005B029A43C3085B021A438A828A8A0723C6
:10112000DB0240079A43800C02438A822A484030FF
:10113000018801221143018027482038418949074D
:10114000FCD570472448818A808A4905890F80042C
:10115000400FC900081870471F498A8A03235B02A1
:101160009A43C3085B021A438A828A8A0723DB02F6
:1011700040079A43800C02438A82704710B50446A8
:10118000154820384089C00502D40120C04310BD55
:1011900000F0DDFB002806D0FFF7D4FFA04202D903
:1011A0000020C04310BD0C48408AC00408D40B483E
:1011B0000088000704D4082C02D20420C04310BDCC
:1011C00007480121047041702046FFF79EFF002070
:1011D00010BD00002030005040000050200300509F
:1011E0006050FC07F0B585B00026884C0296029846
:1011F0003021484300960019009989004650009913
:10120000491C00910C29F7DB0298401C0290012830
:10121000EDDB02F081F87D4D0021083D2960696019
:101220000127029600200090029979484900465A09
:1012300000993846884080B206421DD0029830217D
:1012400048430099001989004058411C1BD00028D0
:101250000DD0C117009A5DF793FF029A12015DF756
:101260008FFF2A686B6810431943286069600098F3
:10127000401C00900C28DBDB0298401C02900128E7
:10128000D0DB05B0F0BD00BEE3E7F8B51646054675
:101290000C460A461F46012000215DF771FF2A0116
:1012A0005DF76EFF594B083B1A685B6810401940A8
:1012B000084300D100BE6801564940186100081873
:1012C0003E43C680F8BD70B505460C460A4601206F
:1012D00000215DF755FF2A015DF752FF4B4A083A9E
:1012E0001368526818401140084300D100BE6801DD
:1012F000484940180121A140818070BD70B5054664
:101300000C460A46012000215DF73AFF2A015DF7ED
:1013100037FF3E4A083A13685268184011400843A4
:1013200000D100BE68013B4940180121A140418025
:1013300070BDFFB581B00C4605460A461F46012028
:1013400000210A9E5DF71CFF2A015DF719FF2F4B54
:10135000083B1A685B6810401940084300D100BE82
:10136000002E2146284602D0FFF7C8FF01E0FFF714
:10137000AAFF3B4621462846039AFFF786FF80E7EF
:1013800070B5012421460A3881400D4688B200F02C
:101390002CF884402048C189A9430C43C48170BD06
:1013A00010B504460A3804280BD82046FFF7E8FF9A
:1013B0001649A000303140188038806D002801D0D7
:1013C000804710BD002CFCDBE106C90E01208840DF
:1013D0001249086010BD0A20E2E70B20E0E70C206C
:1013E000DEE70D20DCE70E20DAE700280BD0411EF7
:1013F0004840C003010C002002E04908401C80B2B4
:101400000029FAD17047102070470000688CFC0753
:10141000DC47FC07003000500014005080E200E080
:1014200010B5FFF75EFE05221207908820490005DF
:1014300004D5204B1C880520A04311D09088C306FA
:101440001D481FD58388DB071CD003881B0619D5D0
:1014500001228280028880239A430280486822E029
:10146000188804221043188018884008400018800B
:101470000C68002C05D00220185E995E0A229A5E44
:10148000A04710BD9288D206FBD582889207F8D576
:101490000288D205F5D5022282800288FF2301331B
:1014A0009A43028088680028EBD0804710BD000076
:1014B000AC8CFC070002005000010050EF4801888E
:1014C00001221203914301807047EC4801880122F8
:1014D000120311430180642000BF401EFCD17047FD
:1014E000E649CA88D208D2000243CA807047E3495D
:1014F000CA8870239A4300010243CA807047F8B536
:10150000050049D0DD4C297820884022904389018C
:10151000084320806878FFF7EAFF2878002803D185
:1015200068780009FFF7DCFFE878042601282088A6
:1015300033D0B04320802879A1880002C9B201438A
:10154000A180E08801274006400F7F02042826D0B2
:10155000FFF7B4FFA8780F2800D900BE61880F22DA
:101560005202914340020143618068796188890891
:10157000890001436180A879012820883BD0B843C5
:101580002080E879072800D900BE6188FF22C13297
:101590009143800101436180F8BD3043CAE7FFF702
:1015A0005EFDB7490028088001D1B6480880FFF7E2
:1015B0008CFF2088384320802188402081430143CC
:1015C00021806088304360806088C004C00C6080E7
:1015D00060880F2149028843084360806088FF21AA
:1015E000C1318843FF2181310843608060888008D1
:1015F00080006080F8BD3843C2E7A048018801221E
:1016000011430180704770B505469C4C0020208036
:101610002120000160804020A080FFF715FDA081FF
:10162000A189702081434031A181062000F0E3F8B8
:101630002846FFF764FFFFF7E0FF70BD8F48018881
:1016400049084900018070478C48018802221143F3
:101650000180704700B5FFF7F7FF884801888907C8
:10166000C90FFBD10121C181008A00BDF8B5834CAF
:1016700005466088000700D500BE20880090678876
:101680000020FFF7C0FF6088042108436080608865
:101690000F214902012388435B02184360802088A0
:1016A000984320806188FF20C130814301436180DD
:1016B000208840218843A901084320802089800A8E
:1016C0008002184320816089800A8002184360816B
:1016D0002088802108432080218858108143218060
:1016E000FFF7B8FF8009FF38FF38023886B220883C
:1016F000FF21013108432080FFF7ACFF8009FF384C
:10170000FF38023880B2012D23D0991B012589B200
:10171000AD02A94200D300BE2289920A92020A4376
:101720002281181A80B2A84200D300BE6189890ABA
:101730008902014361812188FF200130814321809A
:10174000FFF788FF8009984212D9FF38FF38023826
:101750000FE07100591A012589B2AD02A94200D3E8
:1017600000BE2289920A92020A4322814000D8E7F1
:10177000181A082800D300BE009820806780F8BDA2
:101780003E490120C88140480068002800D0004739
:10179000704710B500F03CF838494A88D205520F1E
:1017A000062A01D9062102E04988C905490F062207
:1017B000511AC84010BD10B5FFF746FF2F480188E9
:1017C0008907C90FFBD10121C181008A2C4A2F4909
:1017D0001288801A7D22D2005043002801DD4A1071
:1017E00002E0002801DA2A4A80185DF721FC801106
:1017F000193040B210BD002809DBC106C90E012016
:10180000884024490860BFF34F8FBFF36F8F704744
:10181000F8B5054619484188090705D5FFF717FCB3
:101820000646FFF718FC0FE000888009C007C00FCC
:1018300005D0FFF7F9FB0646FFF7FAFB04E0FFF7D8
:10184000FBFB0646FFF7FCFB04462804401B124D39
:1018500071190E465DF7D6FB07462004001B314682
:101860005DF7E6FB391A6800814201D90020F8BD16
:1018700028468142FBD888B2F8BD00000015005010
:101880006250FC0740760000B88CFC07AA050000F7
:101890002BFDFFFF80E100E0FFFF000010B50A48CC
:1018A00080890A49C96A002901D0884710BD0420EF
:1018B00000F001F810BD002805DBC106C90E0120AB
:1018C0008840034908607047201300506450FC07AB
:1018D00080E200E010B50446FFF734FCA04202D2DB
:1018E0002046FFF739FC58480188C90708D101880C
:1018F0000122114301805448603841894907FCD5D1
:1019000010BD38B5514C054620684107490F68465F
:1019100001700078854219D04B4860384089C00575
:101920000CD5A81E03005DF73BFC05040604040467
:1019300009000B2000E01320FFF7CCFF2068C0084F
:10194000C0002843206060684007FCD538BD40488F
:10195000007870473E49002008707047052109074C
:101960000988090600D400BE80003A490958374862
:10197000016139494161704710B5EFF310840120CE
:1019800080F31088304860384089C0050BD5304955
:1019900001200870FFF7D6FB304908702A480088FC
:1019A000C007C00F4870052000070188802211433E
:1019B000018026480168C908C900016041684907DB
:1019C000FCD50320FFF7CAFF002C03D0012080F3D1
:1019D000108810BD0020FAE770B5EFF310840120E5
:1019E00080F31088052109070888802210430880A9
:1019F00016480368DB08DB00036043685B07FCD51F
:101A0000174B0361144B43610888904308800E48CC
:101A100060384089C0050ED50D4900200F4D087073
:101A20002878FFF799FB6878002804D106480188D8
:101A3000490849000180002C03D0012080F3108860
:101A400070BD0020FAE70000800000500000F4079D
:101A5000BC8CFC07E047FC07090404A46050FC07A9
:101A60000F009909544930B4884201D0012100E0A7
:101A70000021524A4901891808E0838ADB07DB0FFD
:101A800012D00388541C8D68CC81AB54CA898B89D1
:101A90009A42F2D382885208520082808A69002AD0
:101AA00002D0C88930BC104730BC704710B54448DC
:101AB00000F001F810BDF8B53F4D404E04462089B6
:101AC0000007000F062826D009DC012840D0022894
:101AD0001DD00428F3D12046FFF7C4FFEFE7072805
:101AE00028D00C28EBD1AC4201D0012000E000202E
:101AF000400187192046FFF7B5FFA1884908490032
:101B0000A180B9690029DAD0F8898847D7E720464B
:101B100000F01FF8D3E72046AC4201D0012100E0DD
:101B20000021490189190A69002AC8D0818A9E23A7
:101B300019400BE02046AC4201D0012100E0002119
:101B4000490189190A69002AB9D001219047B6E7ED
:101B5000F8BD194930B4884201D0012100E00021CC
:101B6000164A490189180EE003891B069B0F032BB7
:101B70001BD0838A9B06DB0F002B95D0531C0C686F
:101B8000CB80A25C0280CA888B889A42ECD3828880
:101B900002239A438280828880239A4382804A6902
:101BA000002A81D0888830BC10477C231B5A9B07B1
:101BB000DB0FE1E778E7000000100050C08CFC0765
:101BC00000110050F8B51D481B4D0068A84231D0E7
:101BD000FF26C136012130465AF7FEFD044618485B
:101BE000016818480A0A017042700A0C8270090ED6
:101BF000C1700022A35CFF21C0319F07891ABF0F6B
:101C0000615CC75D79405940A154521CB242F1D386
:101C10000C481C222146001D5FF702FA002800D064
:101C200000BE20465AF753FE0648406840F76DFE56
:101C300002480560F8BD0000658734129CB8FC07B7
:101C40005050FC079450FC07F8B50125AD07AC6B6C
:101C50002046FEF717FE6A496A4F4A688618002038
:101C60004860394630465DF7CDF9674948603A46E5
:101C70005043301A00D0381A80B20860286B08210F
:101C8000884308432863614804606148006800286D
:101C900002D0A04200D200BEF8BD10B5FFF721FA75
:101CA000052000074189890703D0418989088900F7
:101CB00041810189802211430181018A04229143DB
:101CC0000182818A8907FCD500F0B6F801208007DF
:101CD0000169490700D500BE01694907FCD510BD5F
:101CE00010B54C4C08202080FFF7F0F92089400700
:101CF000FCD4FFF7F6F94848052100880907488019
:101D00004648474C0088801E608007202080FFF7EF
:101D1000DDF920884007FCD4FFF7BFFF10BDF8B500
:101D200040480168C90703D00168022211430160DD
:101D30000168490204D5016801229205114301603E
:101D400001272F4EBD072C69002C57D0200606D541
:101D50008020A8614BF79BFD1E20FEF725FDA00704
:101D600003D50220A86147F790FC20070AD5082078
:101D7000A86102F014FB002047F740FC04203070FB
:101D800000F0FBFCE00505D5FF200130A861012033
:101D900047F734FCA00504D501204002A8614BF7A9
:101DA000DFFD600603D54020A86147F722FCE0066E
:101DB00003D51020A86145F7DFFF60070FD5042089
:101DC000A861144801894908490001815BF77CFB3F
:101DD00040F736FC1E20FEF7E7FC00203070E007DD
:101DE00006D00120A8615BF78BFB4BF750FD3770E5
:101DF000A006A8D52020A86100BEA4E7F8BD000079
:101E0000008DFC077102000040000040108DFC07AF
:101E1000088DFC0700330050D48BFC07D88BFC07DF
:101E2000001600500002004010B540F74EFA674817
:101E300080686749486010BD10B540F772FA644881
:101E400062494068886010BDF8B5002500F0B9F817
:101E500000270090FEF75DFC01465E4E0020002941
:101E600002D13179022900D100905B490989C90763
:101E70000DD15AF78EFB002809D0F07801250028F3
:101E800005D005200007808AC00701D0042596E010
:101E9000308800287DD1FEF73CFC002806D14F4851
:101EA000806A002802D000F08CF80090FEF7F6FC63
:101EB000B17868465BF765F900286AD00124A40769
:101EC000206940067BD44348817868464BF736FE4C
:101ED000002874D00120FFF70FF90099002906D0DF
:101EE000206AFF383938DA2801D8491E00913C4869
:101EF00002883C48016850183B4A1060E26B920A25
:101F000092020A43E263E16B384A1140384A16688C
:101F1000B2021143E163E16BC902C90A4005014302
:101F2000E163344A009804250021904200D300BEAA
:101F3000314B0CCB5DF790F80903000D0843244AA0
:101F4000401E711C1060884200D116602148007943
:101F5000002801D0012100E00021106847F704FDAE
:101F60002648C06A8047FEF7FDFC002802D0FFF734
:101F7000ADF80127154E206B0004C00FFBD0306870
:101F8000C005FCD530688024A0433060002F03D00A
:101F900000E014E0FFF7A5F80F494889462804D26D
:101FA0004622174B101A18604A81FFF73DFF306830
:101FB0000006FCD5052000070189A14301812846C0
:101FC000F8BD10480068806A7047000000020040B9
:101FD000088DFC0754BAFC070033005074BEFC07A0
:101FE000D88BFC075850FC07A850FC07FF03E0FF04
:101FF0005450FC0740420F00F88BFC0758BFFC0709
:10200000048DFC0758B9FC070020704770477047E3
:1020100010B5282801D2282002E0E62800D9E620C1
:10202000FF21F33148437D21C9005CF7EBFF81308C
:10203000C0B210BD7047704710B5022902D0012907
:1020400000D000BE002802D0FF2802D000BE022926
:1020500002D000F09BFB10BD0C2010BD01218907B0
:10206000086B0722104308638C48016802139143F0
:102070000160704710B50220FFF73EF887480168FD
:10208000020391430160864800214163416B1F2296
:102090001204914342138918416301060868F02233
:1020A0009043E030086010BD10B58AB07D494162B0
:1020B0007D4981627D494161002430210C547C4975
:1020C000C1627C4901607C4901627C4941607C4974
:1020D000C16100F03EFB7248416B1F221204914324
:1020E0004213891841636D480168C212914301602F
:1020F00068460455641CE4B2282CFAD301467148A2
:102100002822006840305CF7F7FF092000F03BFB15
:1021100000F03FFB002802D0012000F034FB00F06B
:1021200019FBFEF72FFFFEF75CFF00F0D5F800F07B
:1021300058F8FFF79FFF00F00BFB00F083F800F06A
:102140001CFB0AB010BD10B55548416B1F2212048C
:10215000914342138918416300060168C908C90008
:10216000016005200007018908221143018100F068
:1021700010FB002802D0012000F005FB00F0EAFA75
:10218000FEF700FFFEF72DFF00F0A6F800F029F89B
:10219000FFF770FF00F035F800F0EFFA10BD10B552
:1021A00004467022484949485CF7A6FF4748483032
:1021B000011B46481038018344495C31091B4183A7
:1021C00010BD10B500F0C6FAFEF70BFF00F084F862
:1021D00000F007F800F0BCFA00F023F800F0CDFAA8
:1021E00010BD2F4B10B540331868394C0102090E51
:1021F000C2B20A3109040A32204011430143196076
:1022000010BD344A118B3148103083691B0C1B04FC
:102210000B438361518BC269120C12040A43C261E1
:1022200070472C4A203A118B28481030C3681B0C89
:102230001B040B43C360518B0269120C12040A4346
:102240000261704710B5FFF7ECFFFFF7DAFF214896
:102250002038018A1D4810308268120C12040A438B
:1022600082601C4A40329188036A1B0C1B040B439A
:102270000362D188426A120C12040A434262154971
:102280004A88836A1B0C1B04134383628988C26AD1
:10229000120C12040A43C26210BD0000000200408A
:1022A000400000400920FC070D20FC073920FC07F6
:1022B0005D20FC070F20FC073520FC073720FC07BA
:1022C0001120FC074CB9FC07FC47FC0770A0FC0779
:1022D00000FF00FF20300040F0B5FE48406B7F213A
:1022E000090288430B2109024018FA494863086A29
:1022F000F94980B24018F7490862886BF749012212
:1023000008405203F34980188863F248403001695D
:1023100003231B0219430161818B10242143818314
:10232000EC4820308188012421438180ED49EC482C
:102330000860ED4C20883F21090188432F210901C5
:1023400040182080E84820388169E84D490D49054A
:1023500049198161C169E64D294009256D02491974
:10236000C1614168E34D2940E34D491941608168ED
:10237000E24D2940E24D49198160C168E14D294093
:10238000E14D4919C1600169E04D2940E04D49190D
:102390000161E049C514097809064919C1256D0193
:1023A0002943DD4D29600525DC49AD020D816D1DF8
:1023B0008D81DA4920310D892D0A2D0255350D8187
:1023C0008D25AD000D82D64D8D82D64D0D83D44D19
:1023D0000E3D8D83D349D14DC91D40352980D24949
:1023E000A181C16BD14C2140D14C0919C163FF209F
:1023F000D04C6C302080CF482030068B1F21490103
:102400000B258E43AD0176190683CA484030868875
:1024100009278E43BF01F6198680068915278E434A
:102420007F01F619068186898E4371198181FF200B
:102430008D30A080BF4880300189E024A14319433A
:102440000181818B4909490119318183B2482030CA
:10245000818B5B01994389188183AF488030016883
:10246000C908C900C91C0160AB49B3484031486282
:10247000F0BDA94908B500208031C8620090401C19
:102480000090FF28FBDDAD480078AA49C006820D08
:102490004031C8681F235B0198431043C86008BDE2
:1024A000A7488C490068403108608A4881698909D9
:1024B00089011C3181618169C21391438161016B82
:1024C0003F22120691430722920689180163016B8D
:1024D0003F22920191430F22D20189180163016BBF
:1024E000890989011E31016370477A48C169490829
:1024F0004900C16170478F4808B54030C1688F4AB4
:102500008905C90E1170C1681F2252019143C16033
:1025100081490120887180488030C16A03221143BB
:10252000C16200200090401C0090FF28FBDD08BD28
:1025300008B579490220887100200090401C009065
:102540000B28FBDB08BD634841210177C1690322E9
:102550005202914302158918C16170475D484030AD
:102560000168774A11600021C943016059488169B7
:102570008909890181618169C21391438161C169BE
:102580000322520291430315C918C161C169702326
:1025900099434031C161016B3F231B0699430B23D3
:1025A0005B06C9180163016B3F239B01994389189E
:1025B0000163016B89098901183101637047F8B51E
:1025C000554803274771434C6068C009C001143067
:1025D0006060FFF7C3FF43202077FFF7A9FFFFF7F5
:1025E0008AFF0025261500950098401C0090B042F7
:1025F000FADB494903204871364880308068C705B6
:10260000FF0DFFF736FF00950098401C0090102842
:10261000FADBA0694002400AF9050843A061A069FD
:1026200048490840B9010843A061FFF78CFFFFF754
:102630007FFFFFF760FF00950098401C0090B042BC
:10264000FADB354903204871224880308068C7058D
:10265000FF0DFFF70EFF00950098401C009010281A
:10266000FADBA0694002400AF9050843A061A069AD
:1026700034490840B9010843A061FFF764FFFFF740
:1026800057FFFFF738FF00950098401C0090B042BC
:10269000FADB2149032048710E4880308068C60566
:1026A000A069F60D4002400AF1050843A061A06947
:1026B00024490840B1010843A061FFF716FFFFF766
:1026C000EFFEFFF7D6FE00950098401C0090102802
:1026D000FADB39E00030004000008888FF00FEFF90
:1026E00059055C07800000402020004009581A006E
:1026F000FEE1FFFFE0E000000809294900000303B4
:10270000696A686C031FFFFF70600000E0E0E0E0B2
:102710000B0A0A08148DFC0700100040201300402B
:10272000340A000051080000070F00002F64E0FE8B
:10273000101A060100120040500150014C50FC07D5
:10274000AC50FC073F80FFFF134846810120F8BDD5
:1027500035E7704708B51148082101710021009143
:10276000009A521C0092102AFADB0091491C009139
:102770001029FBDB0321417108BD0848022181714A
:10278000002181807047064908707047044800782E
:102790007047034840787047B050FC070010004075
:1027A000148DFC07FFB585B00C46FD205EF720FDBB
:1027B000039000276846077008986946060A208833
:1027C0005FF742FE05466088002800D000BE002D5D
:1027D0006AD1FD2000F064FD69460978142359434D
:1027E00042680B1DD35C022B21D15158354A098810
:1027F00091421CD10197029720885FF7C0FD002805
:1028000000D100BE01AB002204A94EF7ADFB049835
:1028100021468005C00F5FF79DFD05062D0E43D1B3
:1028200068460178E28830465FF76FFF21E00028B4
:102830000BD080698446002807D06846A28861884A
:10284000A31D00786546A847054601970297208892
:1028500001A94EF704F9002D26D101980089C00B7B
:1028600007D16288A1882088A31D4EF762F9051E52
:102870001AD1314603985EF7D9FC0146A088079A21
:10288000801D83B210485AF7B5F80746A288A11DEB
:10289000801D5CF731FC684600787880A088B8809D
:1028A0003E7038465AF7C1F804230848079A089939
:1028B0005AF7A0F82188018085705AF7B6F80020F1
:1028C00009B0F0BD022900000AFD0000160C00004E
:1028D000F8B50025244CFF272E46002813D12846A2
:1028E00010302661A082E7826660A660E681A6813C
:1028F000C0B2214626605AF77CFA6D1CEDB218343E
:10290000022DECD3F8BDE08A5EF7F8FC002802D077
:10291000416820468847E7826660A660E681207DA0
:102920005AF7C1FA6D1CEDB21834022DEBD3F8BD85
:10293000F1B50D4D0D4F00242E46E88AFD2803D138
:102940001820604380194760E88A5EF7D7FC0028AA
:1029500003D08268284600999047641CE4B2183579
:10296000022CEAD3F8BD00001C8DFC07C448FC070C
:1029700010B500F007FB60F7BBFE0120FDF7B0FECD
:1029800010BD0C21314A10B5414389188978FF29BF
:1029900002D000F0C1F810BD00F069FE10BD10B506
:1029A00060F78EFD002801D000F061FE10BD10B56B
:1029B00000F05DFE10BD10B525490A780270401C7C
:1029C000491C5CF799FB10BD2149498C0180704777
:1029D0000821018010214180002181807D21C1805A
:1029E000704770B50C4601780025194B002904D0BA
:1029F000012909D04820207070BD8278011D1A700D
:102A0000581C5CF779FB01E040885884257070BD44
:102A100001200870002048808880704770B5044607
:102A20004079800911D13FF76AFF014620700A0AF8
:102A300062700A0CA270090EE170251D3FF75FFF5E
:102A40002870000AC0210843607170BD648DFC07C6
:102A5000708DFC070021BD4A05E0834201D10120B1
:102A60007047491CC9B20C234B43D35CFF2BF4D1F4
:102A70000020704770B5B549B54C0E460C36B54DC3
:102A80000DE052185268002A07D0C2B20C235A43F4
:102A900051184968401C60702DE0401C60706078DF
:102AA0000C2242438B5CFF2BEBD10AE08919496869
:102AB000002903D0FFF7CEFF002809D02078401C62
:102AC000207021780C204143705CFF28EED117E084
:102AD00020780C21414389194968401C20700AE084
:102AE0004919C968002909D0C1B21C2251434919AA
:102AF000C968401CA0708847002070BD401CA070B1
:102B0000A0781C2141436A5CFF2AE9D10020A07013
:102B100060702070012070BDF8B5054600248B4E12
:102B20000AE080198168002904D0641CE4B22846B8
:102B3000884701E0641CE4B220460C214843315C24
:102B4000FF29EED1814E00240C3609E08F19B968B7
:102B5000002903D0FFF77EFF002809D0641CE4B2EF
:102B60000C216143705CFF28F0D10024794E10E005
:102B7000641CB968E4B228468847F1E78019016906
:102B8000002904D0641CE4B22846884701E0641C94
:102B9000E4B220461C214843315CFF29EED1F8BD48
:102BA000F8B56B4DE868002835D15223042209217D
:102BB000694859F71FFF0446E8600D202070002681
:102BC00066706648A080E08007202072A67201200F
:102BD00060721620E072024620460C3060A1074663
:102BE0005CF78AFAE8682B210E54C07A21462C3112
:102BF0000F301F2806D8E07A0A21C21920465EA3AA
:102C00000B3006E02B20005D5BA3421820460A2112
:102C10002B3060F77FFCE868F8BD70B54C4E044679
:102C20008500361D7059002816D121020E2304227A
:102C300054480A3159F7DEFE09210170002C00D0FA
:102C400000BE705110218180082141800021C18087
:102C50007D22028141818181705970BD70B53C4EE9
:102C6000B068002829D13C482C23042209210938C6
:102C700059F7C0FE032101700A21B0604170DC21C8
:102C80000184002585760446458010210A305CF7D2
:102C90004CFA2021E176A583E5833B486584C08F0B
:102CA000FB21FB2800D908463749E08440313748EA
:102CB0000988814200D808462085B06870BD3EB5BD
:102CC00000252249009501950C2234316846029571
:102CD0005CF712FA1E480C22183069465CF70CFAB1
:102CE0001B4C0A222434227023A1601C5CF704FAD6
:102CF00016496584243104205AF77BF8002104200A
:102D00005AF7A9F83EBD4BE710B5FFF749FF59F751
:102D10008CFE0F490020C860022104205AF79BF85E
:102D200010BD10B50446FFF778FF59F77EFE084A3C
:102D30000020A100121D505010BD10B5FFF78EFFEE
:102D400059F773FE02490020886010BD0049FC0756
:102D50004C8DFC07384AFC070D0D00004C040000A8
:102D600003030A181107595A08E4862A9E8FE911AD
:102D7000BC7C9843421800004E6575726170726F9A
:102D8000626500000E0E0000F0BBFC074808000062
:102D900010B510465AF774F8002802D000BE002083
:102DA00010BD012304220921724859F723FE012195
:102DB000017059F73AFEF2E710B50C780E2C13D0DB
:102DC00008DC012C12D0032C16D00C2C0CD00D2CAE
:102DD00008D119E00F2C07D0112C05D0122C03D0EC
:102DE000132C01D000F097FC002010BD487800287B
:102DF00005D1FFF7A2FFF7E74878002801D000BE11
:102E0000F2E7FFF7CCFDEFE7487800F071FCEBE765
:102E1000F8B51C4610460E465AF732F8022802D082
:102E200000BE0020F8BD240A00D000BE0C202746BA
:102E3000474351483D18AC70FF2C15D00121E97073
:102E4000032104205AF707F84B483188C153707AA0
:102E500028713146681D06220A315CF74DF90122BE
:102E60000021204660F740FB3146204600F011FC6F
:102E7000D7E770B50D784C78092D04D0002C00D020
:102E800000BE00F048FC002070BD70B51D46104625
:102E90000C4659F7F5FF2A0A032802D000BE00208D
:102EA00070BD0C2042433448FF211018817000216E
:102EB000C170204600F020FCF1E7F0B5087800254D
:102EC0002E4C89B01F461646002804D0012817D082
:102ED000022827D129E06846FFF76DFD6846037890
:102EE0003246394620460A3359F784FD04460570B8
:102EF00068460278411C6280201D5CF7FDF82BE0DB
:102F000069460D806846FFF75FFD0A233246394661
:102F1000204659F76FFD01210170694609884180FB
:102F200059F783FD002009B0F0BD0A233946204639
:102F300059F760FD04466846FFF74AFD02202070FD
:102F400068460088608068464088A080684680881F
:102F5000E0806846C08820812046E1E7FEB51C4637
:102F6000089B0D26064D6F4668C71346224660F73C
:102F7000BFF9FEBD020D0000648DFC070B0E0000C2
:102F80004049FC07704710B50A23042209210B4869
:102F900059F730FD04461B202070142060F77CFB9D
:102FA0006070142060800420A0800020E080FF2159
:102FB00074312181204659F738FD10BD1B0D0000EA
:102FC000F8B50E4609781846002425460B005CF734
:102FD000E7F8090609120915150C180F1B000B2438
:102FE0001AA512E007241CA50FE008241CA50CE07C
:102FF00007241EA509E00A241EA506E00D2420A52D
:1030000003E0062422A500E000BEA31C01462248DE
:1030100059F7F0FC0746307838707C70002C04D0EB
:1030200022462946B81C5CF767F8384659F7FDFC7C
:103030000020F8BDFEB51C46089B0126174D6F46C3
:1030400068C71346224660F753F9FEBD4469616CB8
:103050006F672053656D6900444131343533310069
:10306000123456FFFE9ABCDE0000000001D2008040
:1030700005000100312E302E302E302D4C45000041
:10308000765F362E302E31362E313134340000004A
:10309000FFEEDDCCBBAA000003140000A849FC072A
:1030A000052000070089000608D501208007006B75
:1030B000000403D403480078C00701D00020704703
:1030C0000120704754BAFC077047704770B50D4631
:1030D0000446FFF7E5FF002806D06B482A46042186
:1030E000201859F7C6FF70BDFDF716FB664804228D
:1030F00008231146801E59F77DFC4560047059F77E
:1031000094FC70BDF8B5614C069D06190024002E94
:1031100026D0012E0CD05F4F5D4B3A46283A022E46
:103120000AD05A49C91E41180A2927D30120F8BDDF
:1031300000F080F8287039E00878461E092E0DD876
:103140008000001F105898422FD1B0003B581350F8
:103150004A6808781146FFF7B9FF26E000BE24E070
:103160004A68002A02D04C48824200D900BE087842
:1031700045494018042159F77CFF16E04349891E50
:103180004018C0B2411E0929E8D88600B218803A1A
:10319000D16F002909D0994207D0404B994204D001
:1031A000D467F219803AD46788472C700020F8BDA4
:1031B0000A46010010B5384801D0814200D900BE4E
:1031C0000020344B283B84001C59002C04D0401CA8
:1031D0000A28F8DB002010BD84001A51401C0406A8
:1031E000240EF7D02046FFF771FF204610BD70B5C2
:1031F0000446401E09281BD82648A10028380D186F
:10320000803DE86F002813D0244EB04210D01E48F5
:103210000421201859F777FF1B4804220823114680
:10322000401EEE6759F7E6FB047059F7FEFB70BDD0
:1032300000BE70BD10B508780C46411E09291FD884
:1032400082001448121F28388258144B9A4205D124
:103250000022890042502830425012E08900405834
:103260000B4988420DD1042208231146064859F71C
:10327000C1FB217801706168416059F7D6FB00E01D
:1032800000BE002010BD000003040000FFFBFFFF94
:10329000CB30FC07D48DFC07FCFF3F00C930FC0796
:1032A0000021154A06E0834203D11C2041438818BF
:1032B0007047491C1C234B43D35CFF2BF3D10020E8
:1032C000704710B51823042209210C4859F792FBC6
:1032D00004461B202070FD2060F7DEF96070FD20A1
:1032E00060800420A0800021E180E1602161A18252
:1032F000204659F79AFB10BD384AFC071B0D000009
:103300003EB51D46069B002400931346019402948B
:103310002A465FF7EDFF3EBD70B530480022416A96
:10332000D243002901D0114600E00121CB17CC0D7A
:103330005B0223434C02416229490D684E682C43CD
:1033400033430C604B604368002B01D0134600E010
:1033500001234360DC17DB180D6864414E682B4382
:1033600034430B604C608369002B00D101228261E1
:10337000D017930E800118430C6892014B682243CA
:1033800018430A60486070BD38B5012003252D023E
:10339000014600901D232A460020FDF7CAFF0024A5
:1033A00023462A46092120460094FDF7C2FF002249
:1033B0000F23062110460094FDF7BBFF38BD10B562
:1033C0001B20FDF7DBFE01F027F8FFF7DDFF0548C6
:1033D000012182898A430A43828110BD688CFC07DF
:1033E000608CFC070003005008B500206A4610708E
:1033F0008A886846891D5BF77FFE05200007418AA1
:103400000122D2031143418208BD08B5002268465B
:1034100002708A88891D5BF76FFE68460078012874
:1034200005D0002802D10921FDF74DFF08BD092173
:103430000020FDF763FF08BD10B5887900281CD077
:103440001C0AFD203FF7BFF9014608230422394832
:1034500059F7D0FA0C214C433749384A611889781A
:103460000170132141800221818011880B0A837130
:10347000C171491C118059F7D8FA10BD70477047C7
:10348000704710B518460C4601462A480823801D8F
:1034900059F7B0FA21780C225143274A89188978C4
:1034A00001706188418000218180817159F7BDFAE6
:1034B00010BD10B518460C4601461E480823801D55
:1034C00059F798FA21780C2251431B4A89188978B8
:1034D000017061884180002181800321817159F749
:1034E000A4FA10BD70B50D4614494888401C4880A8
:1034F000FD203FF768F901460E480A230422C01E4A
:1035000059F778FA044628780C2148430A490222E0
:1035100040188078207068886080A2800020074969
:10352000A071891CE01D5BF7E7FD204659F77DFA85
:1035300070BD000008FD0000648DFC07FC8DFC07D9
:10354000C7488188491C89B201710A0A4271C54A7B
:10355000914202D1002101714171704770B5C04C98
:103560000A3C2079000602D525462F3501E0BC4DE6
:10357000AD1DFFF7E5FF207906224006400E4019F9
:10358000B7495BF7B9FDB64AA37925321046617990
:103590001F385FF7D1FFB449B448FFF709FE6070E8
:1035A00070BD10B5AE4C0A3C2078FFF7BAFB002086
:1035B000A07010BDF0B5B5B0FD203FF704F901468D
:1035C000CF230422AA4859F715FA0446002502AE73
:1035D000A84803C8009001916846FEF714F801203E
:1035E000FEF744F8FEF730F8FEF734F8FEF7D1F8AE
:1035F0000746FEF723F868006D1C3752642DE7DBA1
:1036000008206080C920A08001206070C92202A922
:10361000A01D5BF771FD204659F707FA042059F702
:103620002FFC032806D194490A20FFF7C1FD8C49DD
:103630000A39088135B0F0BD70B5894D00240A3DC6
:103640008748AC7005210170FF214170CD21817048
:10365000AB21C17004714471162288A1801D5BF7F3
:103660004BFD16206871AC71FFF782F970BD10B583
:103670007D497E48FFF79CFD79490A394870FFF77C
:1036800042FB01230622764900F0A8F8FFF73CFB35
:1036900010BD70B5724C064600200A3C0D46E07025
:1036A0000C207C49704340188078FF2814D0267085
:1036B0006078FFF79CFD68880838092805D2A8883B
:1036C000002802D1E8887D2808D07D207249C000FA
:1036D000FFF76EFDA07001E0FFF7C9FF29463046F5
:1036E000FFF74FF964490A20FFF762FD208170BDA2
:1036F000442800D1BBE7704710B5594C0A3CA0786C
:10370000002803D0FFF773FD0020A070FFF718FF1B
:10371000FFF7ADFF10BD70B5554C1D46E41C031BF3
:10372000A0421FD01FDC5D4BC3181BD05C4CE34292
:1037300018D10C4649882E294BD04D4808232946DC
:10374000401E59F757F921780C225143514A8918E4
:103750008978017061884180002181808021817198
:1037600059F763F970BD012B08D0042BFAD14B88AF
:10377000172B2B462AD0FFF79CFE70BD4B88102BD1
:103780001CD009DC022B11D0052B13D0092BF4D14E
:103790002B46FFF774FE70BD142B03D0172B11D0EE
:1037A000182BF8D12B46FFF747FE70BD2B46FFF7CD
:1037B0001BFE70BD2B46FFF728FE70BD2B46FFF7A2
:1037C0005FFE70BD2B46FFF759FE70BDFFF759FE37
:1037D00070BD2B462146FFF785FE70BDFEB517462E
:1037E0000446002B01D01C2000E01F20E27A1C4E72
:1037F000831A20460C300190203025460A3E2035A1
:103800000090BB4209DB019810183A465BF774FC44
:10381000E07AC019E072801F0FE0E87A1F22121AC6
:10382000BA420CDB009A80183A465BF765FCE87AEE
:103830008021C019E872801F0843307100E000BE8B
:10384000E27A07487271801D01995BF755FCEA7AAC
:103850000348B271253000995BF74EFCFEBD0000B5
:103860000A8EFC07FFFF00005D35FC07B80B000067
:1038700006FD0000404FFC07B535FC0703030A189E
:103880001107595A08E4862A9E8FE911BC7C984397
:1038900042180000648DFC07A335FC07EFF1FFFF21
:1038A0000D11FFFFF8B507460120002302460090E6
:1038B0001946032045F7A6FD044602218030017019
:1038C000FF4DFE482A6843881146FF31F7310B86C9
:1038D00080884886FB48066A0123DB069E431E4318
:1038E0000662FF320020FF32383250829082D0824E
:1038F0001D200882F4484884F448C882F4480883AC
:1039000000204882384646F7BDF801462868FF3057
:10391000F730C28B920992010A43C283ED48416895
:1039200000208847002C02D0204645F754F9204655
:10393000F8BDFFB58BB0064616980027022821D0A7
:103940000D9801881498814278D3718808464038D0
:103950003F2802D8159852F751F90C98361D008867
:10396000149A80190E995BF7C7FB0C98018814987C
:1039700008180C9908800D9801881498081A0D9958
:1039800008805CE100200E9D079069782C78090280
:1039900021433180E978AC780902214371808C465B
:1039A000403904242D1D024603468E46402900D38B
:1039B0002878614604291FD0052914D0062918D07B
:1039C00070463F283DD8159852F718F90006000EAA
:1039D00004D0C148008D0006C00F30D00223012062
:1039E000BE4A002712E0697800290FD0BC4A17238D
:1039F0000CE0BC4A0F2309E0522802D0D22802D0A2
:103A000002E0142000E01520B74A1F23002A1AD034
:103A1000984218D2800010580490002813D000203B
:103A20000890059070884038402803D328780524F2
:103A300030716D1C701D00900498B5E0FEE03027D9
:103A4000F0E03327EEE07088042872D10627E9E021
:103A5000522862D00CDC4B283FD004DC41286AD0CD
:103A6000422858D111E04C2820D0502853D140E0B2
:103A7000632830D004DC572818D061284BD19BE054
:103A80006C2864D0772846D109E000982978017025
:103A90000098641C401CA4B26D1C009081E0049846
:103AA000401C04900178089881427AD10098A41CA7
:103AB000401C41084900881C009068782A78000260
:103AC000104308800599AD1CA4B2002969D0089064
:103AD0000020059065E00120FBE7102229460098B0
:103AE0005BF70AFB009810341030A4B21035009038
:103AF00057E0204640301499039088420BD840226A
:103B0000294600985BF7F8FA009840300090039837
:103B1000403584B245E0342743E008222946009826
:103B20005BF7EAFA009808340830A4B20835009030
:103B300037E068E0FFE70622294600985BF7DCFAE9
:103B40000098A41D801DA4B2AD1D009029E014981A
:103B5000001B80B203903088001B001D81B2012041
:103B600007900498401C04900098401C40084000B6
:103B700000900498007857281CD04228CBD1009898
:103B80000170090A417000982946801C0090039A30
:103B90005BF7B2FA03980399201884B20098401892
:103BA00000900498401C0490007800281ED0002F3C
:103BB00017D01BE04908E2E71498001B81B2009877
:103BC0000391401C40084000009001200A460790E5
:103BD000294600985BF790FA0399601884B2009820
:103BE000DDE70D990988A14200D331E70D980088DF
:103BF000A04208D304990978002904D10799002923
:103C000003D1A04201D034270CE00D99001B08809D
:103C10000C9801880098801B001F08180C99002F31
:103C200008800CD07088042809D0062807D04038B6
:103C3000402804D30E984079707100E0342738464C
:103C40000FB0F0BDFFB581B01F4616460C461046BA
:103C500059F716F900257F2802D02189062909D0B5
:103C60003B4632462146019852F75BFB0546284603
:103C700005B0F0BDC00601D50225F8E72078002880
:103C8000F5D1300AA11D3EF7E4FCF0E7F1B598B09C
:103C900018983EF7DCFE0446189805210079134A6F
:103CA0004006C00F099068460184618B08460A38B7
:103CB000904276D2E08A062873D319E030BCFC0724
:103CC0004CB9FC07C00000401080000029410000F2
:103CD0007671000058BFFC0748BEFC073803F207A6
:103CE0004003F2079C03F207D803F207770C0000A9
:103CF0001922D201904254D8228BFF23F5339A42E5
:103D00004FD8521C9300D2184243521C0A2352101F
:103D100059438A4245DC217F00290CD1617F00296B
:103D200009D1A17F002906D1E17F002903D12021FB
:103D3000095DC90635D0274620377978C906C90EEE
:103D4000491F0C292DD2A18A81422AD8E17C002961
:103D500027D0421E082A01D9082000E0401E8142D7
:103D60001FD8684642F734FF00281AD1FE4D0622BC
:103D7000286221460BA85BF7BFF9A8792E46803E42
:103D800000287DD06079800901280BD00BA8099903
:103D900049F7EDF9010003D03820405C002870D0CD
:103DA0009CE009E1F06A807A012808D0042806D056
:103DB0000BA849F749FA286200284ED054E0686AF7
:103DC00006220BA932305BF7BBF9002806D00BA8FE
:103DD00049F73AFA2862002802D012E0686AF9E747
:103DE00000210BA849F746FA2862F16A897A01296D
:103DF00005D18B071A6849068A430A431A600028CE
:103E000011D0F16A286A0622253010315BF798F943
:103E1000002808D1286AF16A2030C07AC97B88421C
:103E200001D1286A1EE0D148D1490088C96880B212
:103E30000622504308183EF70FFE014614A806223A
:103E400002305BF759F913AA00213C203FF7D1F863
:103E50000121B06D44F7F8FAAAE011A90BA849F7BF
:103E600009FA2862002839D001460A9006220FA8D4
:103E700025315BF741F90A9908AA2031C97A01E096
:103E800042E025E00FA849F755F8002812D0286A2B
:103E90002030C07A002809D16846B649008C47F71F
:103EA000BCFF08AA0121B34849F744F868460BA9AA
:103EB000008C0AE008AA012111A849F73BF8002864
:103EC0000CD0296A6846008C323147F7BCFF05E008
:103ED0000A18527D002A08D010286DDBF06A407A5B
:103EE000022806D0032804D00EE0401C1028EFDB87
:103EF000F4E76846008C052806D308AA0BA80999A0
:103F000049F718F8002857D000226946204649F79B
:103F1000BAF8002850D1F06A407A02280BD0032862
:103F200009D00023684602880BA8099949F7CCF804
:103F3000002802D02FE00123F4E7E18A68460181DE
:103F4000218B4181618B8181787806224109684605
:103F500081757878C106C90E6846417521460E30D4
:103F60005BF7CAF8189800794006C10F68460175DA
:103F70000388214602A8B26D43F70CFE0146B065E6
:103F800002A83FF784F80020B065214668461C313E
:103F9000008842F770FE45F7EFFE734C2034207A1C
:103FA000002805D00021092059F7ADF80020207223
:103FB0000021084658F74FFF19B0F0BDF8B56E4C18
:103FC000064685000F4660594C21095C24290ED114
:103FD00040691022791D2E305BF78EF8615925203B
:103FE0004031087300221146304650F75AFF60599D
:103FF0004C21095C0C291FD140691022791D2E30FB
:104000005BF77AF860595F214069095C09072DD494
:1040100001462E3110221E305BF792F800280CD09A
:104020006059092140300173304651F757FC014671
:104030000022304650F7B4FAF8BD042168460170FA
:104040006A460521304650F755FC684601786020E5
:10405000014368460170304651F740FC014668460E
:1040600002780123304650F7B0FBF8BD304651F7D7
:1040700035FC012809D06059072140300173002226
:104080001146304650F70DFFF8BD615900204969CF
:10409000C031887160590421426930461E3250F7A0
:1040A00029FC605941694031897F002907D01A21D4
:1040B000403001730021304650F77DFFF8BD1B21D1
:1040C00040300173304650F7CBFFF8BDF8B52A4CAD
:1040D00005468600A0594C22125C192A11D14022B3
:1040E0004D30491D5BF708F8A059402223494D3057
:1040F0005BF726F8002805D020492846203958F7D4
:104100008AF9F8BD0B21684601706A4605212846E8
:1041100050F7F0FB68460178602001436846017063
:10412000284651F7DBFB0146684602780123284602
:1041300050F74BFBF8BDFFB581B003980C46060A5B
:10414000002558F79DFE002827D0132825D01428D5
:1041500023D00B48B700C0592030407BC00637D56C
:10416000039858F78DFE0DE030BCFC0768B9FC07DA
:1041700060BBFC0750F5F1073CBEFC07FCBDFC072B
:1041800078BBFC0715280CD0A0793EF753FC3046CD
:1041900043F7EEFC032806D015E0A0793EF74AFC71
:1041A0001FE002251DE0A848C0592030407B400791
:1041B00004D53D2130463FF73BF904E03D22002184
:1041C00030463FF744F93D21304642F719FD08E0FB
:1041D000204610389D490181468120464BF702FA5E
:1041E0000125284644E5F8B510460D46140A58F74F
:1041F00047FE010030D09448A200835801271E8B4F
:10420000BF023E431E83132926D0142924D015292A
:1042100011D080582D21095C0123CA06002A0CDA2E
:104220000246A032967D002E07D093753D21204690
:1042300042F7E6FC10E00220F8BD090703D5002193
:10424000A0308175F7E7A030837520463FF770FEF8
:10425000294620463FF7A4FE0020F8BDFFB581B0F7
:104260001546170A104658F70BFE002837D01328BA
:1042700035D0142833D0290A8C00734E152815D058
:10428000FF202946033058F73EFF30592D21095CA5
:10429000C90603D5A030C07D00280DD03D026D1C9D
:1042A000A8B258F7EDFD19280BD00EE030590121C6
:1042B000A030C1750220DBE43D21384642F7A0FC66
:1042C0000DE0A8B2012158F7C6FD30590122018B3B
:1042D000520291430183384602993FF761FE002064
:1042E000C6E4F0B558498700C959002680314A8C88
:1042F0008B8C1B2A00D21B228C8B944200D222462C
:104300008A849A4200D001260B8CCD8C1B2B00D2C4
:104310001B23CC8B9C4200D22346CB84AB4200D0E3
:1043200001260B8ECD8D9C46FF2349339D4201D241
:104330001C4600E02C460D8DA54200D325460D8677
:10434000654500D001264C8EA4468C8D9C4200D23F
:104350001C464B8DA34200D21C464C86644500D0BF
:104360000126EB080B3B9BB29A4200D213468B8688
:10437000522335495843364BCA591C688032D28C77
:104380000419FF34D2B201342286C9591A68803127
:104390008018FF30498E013041863046F0BD2D48EF
:1043A0005222006864308188C37E5143284A1268D3
:1043B0008918FF225F32525AFF31120AD21A013194
:1043C0000B8CD2B2DB0B09D00B8C5B045B0C0B8427
:1043D000002A03D18088204A012111547047FFB57B
:1043E0001746140A81B0184A0298A1005158407823
:1043F0000026194D002907D0295D002905D0002885
:1044000003D1204640F778FA2E553A46049B02998C
:10441000019841F702FA2BE410B518220F49104811
:104420005AF76AFE0D4B0F480C3B0ECB0EC00C48E2
:104430000D49A03001600D49416009490C482039FF
:10444000086010BD7047000078BBFC07060800003C
:104450004CB9FC0784BBFC074E8EFC07544FFC078D
:1044600020000840C000FC070459F007490C00BFB9
:1044700007001000064C0125064E05E0E36807CC56
:104480002B430C3C98471034B442F7D3FBF744FE5F
:104490002C50FC074C50FC07F8B5040C8BB2264698
:1044A00082B25E430D0C1046370C58433604801917
:1044B0000021794116466E43370C36048019794144
:1044C00026466E438919F8BD02E008C8121F08C1CC
:1044D000002AFAD170477047002001E001C1121F85
:1044E000002AFBD17047F401030070CAEA80D007AC
:1044F00006406432E644FC07F08BFC07A920FC0769
:104500004721FC0793DEF007F1DEF007F9DEF00744
:1045100049DFF00761DFF00777DFF00799DFF00789
:1045200019E3F007BDE5F007FDE3F0071DE4F00730
:104530003DE4F0077BE4F0078BE4F007F5F9F007C2
:10454000B1F7F007CFF7F007EBF7F00705F8F00742
:1045500019F8F00797F8F007AFF8F007DFCDF1078B
:1045600067D0F107DBB9F007CD0DF207B10EF20706
:10457000AD0EF207A90EF2078D21F0077906FC07B0
:10458000491CFC076909FC079B08FC078508FC0718
:10459000B57EF007837DF007A538FC07599EF1072B
:1045A000634CF107D128FC07D110F2073129FC0731
:1045B000B111F2074112F2077912F2070000000070
:1045C0007306FC077506FC07B9C6F007D592F1071C
:1045D0003339FC075F9DF1075F9CF107453CFC0701
:1045E000EB72F107B922F1076B04F1074906FC07EA
:1045F0002BA4F007F1D2F0075FBDF007D5BDF0079F
:1046000085BEF007E342FC07752EF0071581F00721
:10461000DF7FF0070937F007000000006306FC07A2
:104620006B06FC074B06FC07F3C3F10775C4F107E3
:104630007706FC079F21FC07000000000000000037
:10464000000000000000000000000000000000006A
:10465000000000000000000000000000000000005A
:10466000000000000000000000000000000000004A
:10467000000000000000000005000000E056FC07FC
:10468000000400006092FC07AC020000548EFC079E
:10469000000400001895FC077005000020030000CE
:1046A00000A60E0004000000D2000000320000004E
:1046B0003C000000010000000100000002000000BA
:1046C00002000000040000000300000006000000DB
:1046D00000000000020000000200000000000000D6
:1046E00000000000030000000300000005000000BF
:1046F00005000000060000000A0000000A0000009B
:10470000C8000000B80B000002000000B80B000059
:10471000B80B000010000000D4010000CC01000024
:10472000700200006A0000000400000001000000A8
:10473000200000000A00000001000000E204000068
:104740008A020000DC050000AF000000F444FC0712
:10475000000000006C48FC07E448FC07184AFC070E
:104760000000000001040000000000003F00000005
:1047700000000000010000013741FC0701001D019D
:10478000E741FC0701001E015D42FC070100000239
:10479000DF43FC0700000000000000002000800054
:1047A00000C000000000840000002822000000007B
:1047B0000000040000F7FFFF7F00000030F0FF0F53
:1047C00000000000000400000000000000000000E5
:1047D000000000000000000000000000FF0F0000CB
:1047E0000100990903009909070099090F00990927
:1047F0001F1099092F2099095F5199090800049009
:104800000000000000000000030005D08B0035F020
:1048100010005CF0000010B0000018B000001AB0EA
:10482000030051F0000038B000003AB0000064B05E
:10483000000066B0000022B0000024B0010005D0E6
:10484000000000000A00008008030490000004F04B
:10485000030006D0000000000A0000800803049056
:10486000000004F0030006D000000000784BFC07B5
:104870007C4BFC07804BFC07A132FC07130C0000AB
:104880004B29F207150C0000A527FC07170C0000A8
:10489000572BF207000C00002328F20706FD00004A
:1048A0005728F20703FD00003728F20708FD000033
:1048B000B328F2070EFD00000F29F20705FD0000E6
:1048C000992BF2077C48FC07090000001400000047
:1048D000ED14F207FD0000002126F207FF000000A2
:1048E00000000000CC48FC071C8DFC070200000003
:1048F00000004C044C0407010001020304050600FB
:10490000FF00000000000000000000001400000094
:10491000872FFC0700000000FF00000000000000DF
:104920000000000000000000583FF207A88DFC07BF
:104930000400010000000000000000000000000072
:10494000010D0000912DFC07000D0000B92DFC07A2
:10495000000E0000732EFC07010E0000112EFC0754
:10496000030E00008B2EFC070A0E0000BB2EFC0776
:104970000C0E00008531F2071C0D0000C731F20754
:10498000100D00008530F2070F0E0000F931F2071C
:104990002C0E00003932F207120C00005332F207DD
:1049A000080E00006F32F20702140000C12FFC074E
:1049B0009336FC07F936FC070000000000000000F9
:1049C0009F29FC0700000000F136FC0700000000F2
:1049D000AF29FC07000000000000000000000000FC
:1049E000B729FC07C929FC07D129FC07E329FC07E3
:1049F00000000000112AFC071D2AFC07000000002F
:104A0000000000005D2FFC070531FC073530FC0776
:104A10000133FC07F80000003B2DFC07752AFC075A
:104A2000B049FC071737FC07044AFC07648DFC07F4
:104A300000000000948DFC07FD000000804BFC0787
:104A400030000000C332FC0700000000000000003E
:104A500000000000FF000000000000000000000057
:104A60000000000000000000000000000000000046
:104A7000595A08E4862A9E8FE911BC7C9843421853
:104A800020EE8D0CE1F04A0CB325DC536A68862DCC
:104A90004F43313C939242E6A876FA3BEFB4875AF3
:104AA00017B967984C664C01963331B1915900158E
:104AB0002368EC521E6244749A1BD18BAB75B66EA0
:104AC0009EE7BA08B9A948ABA1AC031C2E0D296C0E
:104AD00028D5E1C1E1C54729B55765C3BA47159E39
:104AE0008C09E0D1815442408E4FD2B377E32A77CC
:104AF000595A08E4862A9E8FE911BC7C7C464218EC
:104B000020EE8D0CE1F04A0CB325DC536A68862C4C
:104B10004F43313C939242E6A876FA3BEFB4875973
:104B2000595A08E4862A9E08E911BC7CD0474218ED
:104B300017B967984C664C01963331B191590014FE
:104B40002368EC521E6244749A1BD18BAB75B66D10
:104B500028D5E1C1E1C54729B55765C3BA47159DB9
:104B6000F3D81C4511964D1213FED63BCC316C6E1A
:104B70000028032802290129001A2130030000001F
:104B8000704BFC0710000000010000001000100036
:104B9000704AFC07724BFC07020000000100000095
:104BA0000000000000000000804AFC071000000028
:104BB000080002000100000000000000764BFC0726
:104BC00002000000010000000D000D001C50FC0759
:104BD000724BFC0702000000010000000000000012
:104BE00000000000904AFC07100000000880000050
:104BF0000180000000000000764BFC07020000006E
:104C00000100000009000900F44FFC07724BFC078B
:104C10000200000001000000000000000000000091
:104C2000A04AFC071000000001020000C9000000BB
:104C300000000000744BFC070200000009000200A5
:104C40000200000000000000764BFC07020000009C
:104C5000010000000B000B00B84FFC07724BFC0773
:104C60000200000001000000000000000000000041
:104C7000B04AFC0710000000010000000200000024
:104C800000000000764BFC0702000000010000005D
:104C90000B000B00C44FFC07724BFC070200000026
:104CA000010000000000000000000000C04AFC07F6
:104CB00010000000010200000100000000000000E0
:104CC000744BFC0702000000090002000200000013
:104CD00000000000764BFC0702000000010000000D
:104CE0000C000C000050FC07724BFC070200000097
:104CF000010000000000000000000000D04AFC0796
:104D00001000000041000000010000000000000051
:104D1000744BFC07020000000900020002000000C2
:104D200000000000764BFC070200000001000000BC
:104D30000C000C00D04FFC07724BFC070200000077
:104D4000010000000000000000000000E04AFC0735
:104D50001000000009020200010000000000000035
:104D6000744BFC0702000000090002000200000072
:104D700000000000764BFC0702000000010000006C
:104D80000A000A001050FC07704BFC0710000000DE
:104D90000100000010001000F04AFC07724BFC07F5
:104DA0000200000001000000000000000000000000
:104DB000004BFC071000000008000200018000000A
:104DC00000000000764BFC0702000000010000001C
:104DD00008000800E84FFC07724BFC0702000000C7
:104DE000010000000000000000000000104BFC0764
:104DF000100000000880000001000000000000001A
:104E0000764BFC07020000000100000011001100B9
:104E1000904FFC07704BFC071000000008000000DA
:104E200010001000204BFC07724BFC070200000032
:104E3000010000000000000000000000304BFC07F3
:104E4000100000000102000002000000000000004D
:104E5000744BFC0702000000090002000200000081
:104E600000000000764BFC0702000000010000007B
:104E700010001000A44FFC07724BFC07020000005A
:104E8000010000000000000000000000404BFC0793
:104E900010000000010000000200000000000000FF
:104EA000764BFC070200000001000000070007002D
:104EB000E04FFC07724BFC070200000001000000FD
:104EC0000000000000000000504BFC071000000034
:104ED000410000000200000000000000744BFC07CD
:104EE00002000000090002000200000000000000B3
:104EF000764BFC07020000000100000012001200C7
:104F00007C4FFC07724BFC07020000000100000010
:104F10000000000000000000604BFC0710000000D3
:104F2000010000000280000000000000764BFC073A
:104F300002000000010000000C000C006C4FFC0798
:104F400001020200000300008D3CFC07BD3FFC078E
:104F5000CD40FC07F99DF00700000000E3A1F10738
:104F6000000000004FA4F1070000000052656164DA
:104F7000206D6520285249290000000052656164B7
:104F8000206D652028696E6469636174652900007D
:104F90005772697465206D6520286E6F207273707A
:104FA0002900000052656164206D6520286E6F74D1
:104FB00069667929000000004144432056616C7500
:104FC000652031004144432056616C7565203200F4
:104FD000496E64696361746561626C65000000001C
:104FE00052656164206D65005772697465206D6556
:104FF000000000004C4544205374617465000000BB
:10500000427574746F6E2053746174650000000003
:105010004C6F6E672056616C75650000436F6E744F
:10502000726F6C20506F696E740000005050FC0766
:105030005050FC0790060000D844FC07C08BFC07CA
:10504000C08BFC0794020000D844FC070E0000004F
:0400000507FC0111E2
:00000001FF
